{
  "contractName": "ERC20StakingRewardsDistribution",
  "abi": [
    {
      "anonymous": false,
      "inputs": [],
      "name": "Canceled",
      "type": "event"
    },
    {
      "anonymous": false,
      "inputs": [
        {
          "indexed": true,
          "internalType": "address",
          "name": "claimer",
          "type": "address"
        },
        {
          "indexed": false,
          "internalType": "uint256[]",
          "name": "amounts",
          "type": "uint256[]"
        }
      ],
      "name": "Claimed",
      "type": "event"
    },
    {
      "anonymous": false,
      "inputs": [
        {
          "indexed": false,
          "internalType": "address[]",
          "name": "rewardsTokenAddresses",
          "type": "address[]"
        },
        {
          "indexed": false,
          "internalType": "address",
          "name": "stakableTokenAddress",
          "type": "address"
        },
        {
          "indexed": false,
          "internalType": "uint256[]",
          "name": "rewardsAmounts",
          "type": "uint256[]"
        },
        {
          "indexed": false,
          "internalType": "uint64",
          "name": "startingTimestamp",
          "type": "uint64"
        },
        {
          "indexed": false,
          "internalType": "uint64",
          "name": "endingTimestamp",
          "type": "uint64"
        },
        {
          "indexed": false,
          "internalType": "bool",
          "name": "locked",
          "type": "bool"
        },
        {
          "indexed": false,
          "internalType": "uint256",
          "name": "stakingCap",
          "type": "uint256"
        }
      ],
      "name": "Initialized",
      "type": "event"
    },
    {
      "anonymous": false,
      "inputs": [
        {
          "indexed": true,
          "internalType": "address",
          "name": "previousOwner",
          "type": "address"
        },
        {
          "indexed": true,
          "internalType": "address",
          "name": "newOwner",
          "type": "address"
        }
      ],
      "name": "OwnershipTransferred",
      "type": "event"
    },
    {
      "anonymous": false,
      "inputs": [
        {
          "indexed": false,
          "internalType": "uint256[]",
          "name": "amounts",
          "type": "uint256[]"
        }
      ],
      "name": "Recovered",
      "type": "event"
    },
    {
      "anonymous": false,
      "inputs": [
        {
          "indexed": true,
          "internalType": "address",
          "name": "staker",
          "type": "address"
        },
        {
          "indexed": false,
          "internalType": "uint256",
          "name": "amount",
          "type": "uint256"
        }
      ],
      "name": "Staked",
      "type": "event"
    },
    {
      "anonymous": false,
      "inputs": [
        {
          "indexed": false,
          "internalType": "uint256[]",
          "name": "amounts",
          "type": "uint256[]"
        }
      ],
      "name": "UpdatedRewards",
      "type": "event"
    },
    {
      "anonymous": false,
      "inputs": [
        {
          "indexed": true,
          "internalType": "address",
          "name": "withdrawer",
          "type": "address"
        },
        {
          "indexed": false,
          "internalType": "uint256",
          "name": "amount",
          "type": "uint256"
        }
      ],
      "name": "Withdrawn",
      "type": "event"
    },
    {
      "inputs": [],
      "name": "canceled",
      "outputs": [
        {
          "internalType": "bool",
          "name": "",
          "type": "bool"
        }
      ],
      "stateMutability": "view",
      "type": "function"
    },
    {
      "inputs": [],
      "name": "endingTimestamp",
      "outputs": [
        {
          "internalType": "uint64",
          "name": "",
          "type": "uint64"
        }
      ],
      "stateMutability": "view",
      "type": "function"
    },
    {
      "inputs": [],
      "name": "factory",
      "outputs": [
        {
          "internalType": "address",
          "name": "",
          "type": "address"
        }
      ],
      "stateMutability": "view",
      "type": "function"
    },
    {
      "inputs": [],
      "name": "initialized",
      "outputs": [
        {
          "internalType": "bool",
          "name": "",
          "type": "bool"
        }
      ],
      "stateMutability": "view",
      "type": "function"
    },
    {
      "inputs": [],
      "name": "lastConsolidationTimestamp",
      "outputs": [
        {
          "internalType": "uint64",
          "name": "",
          "type": "uint64"
        }
      ],
      "stateMutability": "view",
      "type": "function"
    },
    {
      "inputs": [],
      "name": "locked",
      "outputs": [
        {
          "internalType": "bool",
          "name": "",
          "type": "bool"
        }
      ],
      "stateMutability": "view",
      "type": "function"
    },
    {
      "inputs": [],
      "name": "owner",
      "outputs": [
        {
          "internalType": "address",
          "name": "",
          "type": "address"
        }
      ],
      "stateMutability": "view",
      "type": "function"
    },
    {
      "inputs": [
        {
          "internalType": "uint256",
          "name": "",
          "type": "uint256"
        }
      ],
      "name": "rewards",
      "outputs": [
        {
          "internalType": "address",
          "name": "token",
          "type": "address"
        },
        {
          "internalType": "uint256",
          "name": "amount",
          "type": "uint256"
        },
        {
          "internalType": "uint256",
          "name": "perStakedToken",
          "type": "uint256"
        },
        {
          "internalType": "uint256",
          "name": "recoverableSeconds",
          "type": "uint256"
        },
        {
          "internalType": "uint256",
          "name": "claimed",
          "type": "uint256"
        }
      ],
      "stateMutability": "view",
      "type": "function"
    },
    {
      "inputs": [],
      "name": "secondsDuration",
      "outputs": [
        {
          "internalType": "uint64",
          "name": "",
          "type": "uint64"
        }
      ],
      "stateMutability": "view",
      "type": "function"
    },
    {
      "inputs": [],
      "name": "stakableToken",
      "outputs": [
        {
          "internalType": "contract IERC20",
          "name": "",
          "type": "address"
        }
      ],
      "stateMutability": "view",
      "type": "function"
    },
    {
      "inputs": [
        {
          "internalType": "address",
          "name": "",
          "type": "address"
        }
      ],
      "name": "stakers",
      "outputs": [
        {
          "internalType": "uint256",
          "name": "stake",
          "type": "uint256"
        }
      ],
      "stateMutability": "view",
      "type": "function"
    },
    {
      "inputs": [],
      "name": "stakingCap",
      "outputs": [
        {
          "internalType": "uint256",
          "name": "",
          "type": "uint256"
        }
      ],
      "stateMutability": "view",
      "type": "function"
    },
    {
      "inputs": [],
      "name": "startingTimestamp",
      "outputs": [
        {
          "internalType": "uint64",
          "name": "",
          "type": "uint64"
        }
      ],
      "stateMutability": "view",
      "type": "function"
    },
    {
      "inputs": [],
      "name": "totalStakedTokensAmount",
      "outputs": [
        {
          "internalType": "uint256",
          "name": "",
          "type": "uint256"
        }
      ],
      "stateMutability": "view",
      "type": "function"
    },
    {
      "inputs": [
        {
          "internalType": "address[]",
          "name": "_rewardTokenAddresses",
          "type": "address[]"
        },
        {
          "internalType": "address",
          "name": "_stakableTokenAddress",
          "type": "address"
        },
        {
          "internalType": "uint256[]",
          "name": "_rewardAmounts",
          "type": "uint256[]"
        },
        {
          "internalType": "uint64",
          "name": "_startingTimestamp",
          "type": "uint64"
        },
        {
          "internalType": "uint64",
          "name": "_endingTimestamp",
          "type": "uint64"
        },
        {
          "internalType": "bool",
          "name": "_locked",
          "type": "bool"
        },
        {
          "internalType": "uint256",
          "name": "_stakingCap",
          "type": "uint256"
        }
      ],
      "name": "initialize",
      "outputs": [],
      "stateMutability": "nonpayable",
      "type": "function"
    },
    {
      "inputs": [],
      "name": "cancel",
      "outputs": [],
      "stateMutability": "nonpayable",
      "type": "function"
    },
    {
      "inputs": [],
      "name": "recoverUnassignedRewards",
      "outputs": [],
      "stateMutability": "nonpayable",
      "type": "function"
    },
    {
      "inputs": [
        {
          "internalType": "uint256",
          "name": "_amount",
          "type": "uint256"
        }
      ],
      "name": "stake",
      "outputs": [],
      "stateMutability": "nonpayable",
      "type": "function"
    },
    {
      "inputs": [
        {
          "internalType": "uint256",
          "name": "_amount",
          "type": "uint256"
        }
      ],
      "name": "withdraw",
      "outputs": [],
      "stateMutability": "nonpayable",
      "type": "function"
    },
    {
      "inputs": [
        {
          "internalType": "uint256[]",
          "name": "_amounts",
          "type": "uint256[]"
        },
        {
          "internalType": "address",
          "name": "_recipient",
          "type": "address"
        }
      ],
      "name": "claim",
      "outputs": [],
      "stateMutability": "nonpayable",
      "type": "function"
    },
    {
      "inputs": [
        {
          "internalType": "address",
          "name": "_recipient",
          "type": "address"
        }
      ],
      "name": "claimAll",
      "outputs": [],
      "stateMutability": "nonpayable",
      "type": "function"
    },
    {
      "inputs": [
        {
          "internalType": "address",
          "name": "_recipient",
          "type": "address"
        }
      ],
      "name": "exit",
      "outputs": [],
      "stateMutability": "nonpayable",
      "type": "function"
    },
    {
      "inputs": [
        {
          "internalType": "address",
          "name": "_token",
          "type": "address"
        },
        {
          "internalType": "uint256",
          "name": "_amount",
          "type": "uint256"
        }
      ],
      "name": "addRewards",
      "outputs": [],
      "stateMutability": "nonpayable",
      "type": "function"
    },
    {
      "inputs": [
        {
          "internalType": "address",
          "name": "_account",
          "type": "address"
        }
      ],
      "name": "claimableRewards",
      "outputs": [
        {
          "internalType": "uint256[]",
          "name": "",
          "type": "uint256[]"
        }
      ],
      "stateMutability": "view",
      "type": "function"
    },
    {
      "inputs": [],
      "name": "getRewardTokens",
      "outputs": [
        {
          "internalType": "address[]",
          "name": "",
          "type": "address[]"
        }
      ],
      "stateMutability": "view",
      "type": "function"
    },
    {
      "inputs": [
        {
          "internalType": "address",
          "name": "_rewardToken",
          "type": "address"
        }
      ],
      "name": "rewardAmount",
      "outputs": [
        {
          "internalType": "uint256",
          "name": "",
          "type": "uint256"
        }
      ],
      "stateMutability": "view",
      "type": "function"
    },
    {
      "inputs": [
        {
          "internalType": "address",
          "name": "_staker",
          "type": "address"
        }
      ],
      "name": "stakedTokensOf",
      "outputs": [
        {
          "internalType": "uint256",
          "name": "",
          "type": "uint256"
        }
      ],
      "stateMutability": "view",
      "type": "function"
    },
    {
      "inputs": [
        {
          "internalType": "address",
          "name": "_staker",
          "type": "address"
        }
      ],
      "name": "earnedRewardsOf",
      "outputs": [
        {
          "internalType": "uint256[]",
          "name": "",
          "type": "uint256[]"
        }
      ],
      "stateMutability": "view",
      "type": "function"
    },
    {
      "inputs": [
        {
          "internalType": "address",
          "name": "_rewardToken",
          "type": "address"
        }
      ],
      "name": "recoverableUnassignedReward",
      "outputs": [
        {
          "internalType": "uint256",
          "name": "",
          "type": "uint256"
        }
      ],
      "stateMutability": "view",
      "type": "function"
    },
    {
      "inputs": [
        {
          "internalType": "address",
          "name": "_claimer",
          "type": "address"
        }
      ],
      "name": "getClaimedRewards",
      "outputs": [
        {
          "internalType": "uint256[]",
          "name": "",
          "type": "uint256[]"
        }
      ],
      "stateMutability": "view",
      "type": "function"
    },
    {
      "inputs": [],
      "name": "renounceOwnership",
      "outputs": [],
      "stateMutability": "nonpayable",
      "type": "function"
    },
    {
      "inputs": [
        {
          "internalType": "address",
          "name": "_newOwner",
          "type": "address"
        }
      ],
      "name": "transferOwnership",
      "outputs": [],
      "stateMutability": "nonpayable",
      "type": "function"
    }
  ],
  "bytecode": "0x608060405234801561001057600080fd5b50612c34806100206000396000f3fe608060405234801561001057600080fd5b50600436106101f05760003560e01c80639322776e1161010f578063c45a0155116100a2578063e644067d11610071578063e644067d14610489578063ea8a1af014610491578063f2fde38b14610499578063f301af42146104ac57600080fd5b8063c45a01551461043a578063c4f59f9b1461044d578063cf30901214610462578063dc01f60d1461047657600080fd5b8063b41fa979116100de578063b41fa979146103f1578063b42652e9146103fa578063b9e35db01461040d578063c10de3001461042057600080fd5b80639322776e14610382578063a694fc3a146103a2578063a9fc507b146103b5578063ab08d4fc146103c857600080fd5b80635fa3502311610187578063887862721161015657806388786272146103295780638c574b481461033c5780638da5cb5b1461034f5780639168ae721461036257600080fd5b80635fa35023146102e1578063645a8a56146102fb578063715018a61461030e57806377329f351461031657600080fd5b80633b34ee50116101c35780633b34ee50146102715780633f9942ff1461029257806344c370d3146102a65780635e5294b7146102af57600080fd5b8063158ef93e146101f55780631c96c3fb1461021e57806323a26e36146102495780632e1a7d4d1461025e575b600080fd5b60055461020990600160b01b900460ff1681565b60405190151581526020015b60405180910390f35b600354610231906001600160a01b031681565b6040516001600160a01b039091168152602001610215565b61025c6102573660046126d6565b6104f1565b005b61025c61026c36600461288a565b6109a7565b61028461027f366004612691565b610b63565b604051908152602001610215565b60055461020990600160a81b900460ff1681565b61028460075481565b6002546102c990600160401b90046001600160401b031681565b6040516001600160401b039091168152602001610215565b6002546102c990600160801b90046001600160401b031681565b610284610309366004612691565b610c12565b61025c610c7a565b61025c610324366004612691565b610ce3565b6002546102c9906001600160401b031681565b61025c61034a366004612797565b610f12565b600454610231906001600160a01b031681565b610284610370366004612691565b60016020526000908152604090205481565b610395610390366004612691565b6111d3565b6040516102159190612a02565b61025c6103b036600461288a565b6112bf565b61025c6103c33660046126ac565b611522565b6102846103d6366004612691565b6001600160a01b031660009081526001602052604090205490565b61028460065481565b61025c610408366004612691565b6116b0565b61039561041b366004612691565b61172b565b6002546102c990600160c01b90046001600160401b031681565b600554610231906001600160a01b031681565b610455611812565b60405161021591906129b5565b60055461020990600160a01b900460ff1681565b610395610484366004612691565b6118de565b61025c611b75565b61025c611e34565b61025c6104a7366004612691565b612018565b6104bf6104ba36600461288a565b6120dc565b604080516001600160a01b0390961686526020860194909452928401919091526060830152608082015260a001610215565b600554600160b01b900460ff16156105385760405162461bcd60e51b81526020600482015260056024820152640a6a48862760db1b60448201526064015b60405180910390fd5b836001600160401b0316836001600160401b0316116105815760405162461bcd60e51b815260206004820152600560248201526429a922181960d91b604482015260640161052f565b8785146105b85760405162461bcd60e51b8152602060048201526005602482015264535244303360d81b604482015260640161052f565b6105c28484612b1b565b600260106101000a8154816001600160401b0302191690836001600160401b0316021790555060005b63ffffffff81168911156108665760008a8a8363ffffffff1681811061061357610613612bc4565b90506020020160208101906106289190612691565b9050600088888463ffffffff1681811061064457610644612bc4565b60200291909101359150506001600160a01b03821661068d5760405162461bcd60e51b815260206004820152600560248201526414d4910c0d60da1b604482015260640161052f565b6040516370a0823160e01b8152306004820152829082906001600160a01b038316906370a082319060240160206040518083038186803b1580156106d057600080fd5b505afa1580156106e4573d6000803e3d6000fd5b505050506040513d601f19601f8201168201806040525081019061070891906128a3565b1461073d5760405162461bcd60e51b815260206004820152600560248201526429a922181b60d91b604482015260640161052f565b506040805160a0810182526001600160a01b0393841681526020810192835260009181018281526060820183815260808301848152845460018101865594805292517f290decd9548b62a8d60345a988386fc84ba6bc95484008f6362f93160ef3e563600590950294850180546001600160a01b031916919097161790955592517f290decd9548b62a8d60345a988386fc84ba6bc95484008f6362f93160ef3e56483015591517f290decd9548b62a8d60345a988386fc84ba6bc95484008f6362f93160ef3e56582015591517f290decd9548b62a8d60345a988386fc84ba6bc95484008f6362f93160ef3e566830155517f290decd9548b62a8d60345a988386fc84ba6bc95484008f6362f93160ef3e567909101558061085e81612b8a565b9150506105eb565b506001600160a01b0387166108a55760405162461bcd60e51b8152602060048201526005602482015264535244303760d81b604482015260640161052f565b600380546001600160a01b03199081166001600160a01b038a1617909155600480543392168217905560058054600280546fffffffffffffffffffffffffffffffff19166001600160401b03898116918217600160401b918a1691909102176001600160c01b0316600160c01b919091021790556007849055600160b01b6001600160a81b031990911660ff60a01b1990931692909217600160a01b851515021761ffff60a81b19169190911790556040517f2c1fa4f0e3f1c67636ee0b3665bf3a04407a2c1332d4e3e99f941ee2b0b9daf490610994908b908b908b908b908b908b908b908b908b9061290e565b60405180910390a1505050505050505050565b600554600160b01b900460ff1680156109ca5750600554600160a81b900460ff16155b80156109e157506002546001600160401b03164210155b6109fd5760405162461bcd60e51b815260040161052f90612a6d565b60008111610a355760405162461bcd60e51b8152602060048201526005602482015264535244313160d81b604482015260640161052f565b600554600160a01b900460ff1615610a9057600254600160401b90046001600160401b03164211610a905760405162461bcd60e51b815260206004820152600560248201526429a922189960d91b604482015260640161052f565b610a98612127565b3360009081526001602052604090208054821115610ae05760405162461bcd60e51b8152602060048201526005602482015264535244313360d81b604482015260640161052f565b81816000016000828254610af49190612b04565b925050819055508160066000828254610b0d9190612b04565b9091555050600354610b29906001600160a01b03163384612378565b60405182815233907f7084f5476618d8e60b11ef0d7d3f06914655adb8793e28ff7f018d4c76d505d5906020015b60405180910390a25050565b6000805b600054811015610c09576000808281548110610b8557610b85612bc4565b6000918252602090912060059091020180549091506001600160a01b0385811691161415610bf65760025460018201546003830154600160701b92600160801b90046001600160401b031691610bda91612ae5565b610be49190612ac3565b610bee9190612ac3565b949350505050565b5080610c0181612b6f565b915050610b67565b50600092915050565b6000805b600054811015610c09576000808281548110610c3457610c34612bc4565b6000918252602090912060059091020180549091506001600160a01b0385811691161415610c6757600101549392505050565b5080610c7281612b6f565b915050610c16565b6004546001600160a01b03163314610ca45760405162461bcd60e51b815260040161052f90612a8c565b600480546001600160a01b031916905560405160009081907f8be0079c531659141344cd1fd0a4f28419497f9722a3daafe3b4186f6b6457e0908290a3565b600554600160b01b900460ff168015610d065750600554600160a81b900460ff16155b8015610d1d57506002546001600160401b03164210155b610d395760405162461bcd60e51b815260040161052f90612a6d565b610d41612127565b33600090815260016020526040812081549091906001600160401b03811115610d6c57610d6c612bda565b604051908082528060200260200182016040528015610d95578160200160208202803683370190505b5090506000805b600054811015610e95576000808281548110610dba57610dba612bc4565b60009182526020808320600590920290910180546001600160a01b031683526001808901909252604083206002810154928101549194509291610dfc91612b04565b905084158015610e0c5750600081115b15610e1657600194505b80826002016000828254610e2a9190612aab565b9250508190555080836004016000828254610e459190612aab565b90915550508254610e60906001600160a01b03168983612378565b80868581518110610e7357610e73612bc4565b6020026020010181815250505050508080610e8d90612b6f565b915050610d9c565b5080610ecb5760405162461bcd60e51b8152602060048201526005602482015264535244323360d81b604482015260640161052f565b336001600160a01b03167f28ee566bdecaf975c0979f4d09fecf91a9009ffe78523aef053a678134137b8b83604051610f049190612a02565b60405180910390a250505050565b600554600160b01b900460ff168015610f355750600554600160a81b900460ff16155b8015610f4c57506002546001600160401b03164210155b610f685760405162461bcd60e51b815260040161052f90612a6d565b600054825114610fa25760405162461bcd60e51b815260206004820152600560248201526414d4910c4d60da1b604482015260640161052f565b610faa612127565b33600090815260016020526040812081549091906001600160401b03811115610fd557610fd5612bda565b604051908082528060200260200182016040528015610ffe578160200160208202803683370190505b5090506000805b60005481101561115557600080828154811061102357611023612bc4565b60009182526020808320600590920290910180546001600160a01b03168352600180890190925260408320600281015492810154919450929161106591612b04565b9050600089858151811061107b5761107b612bc4565b60200260200101519050808210156110bd5760405162461bcd60e51b8152602060048201526005602482015264535244313560d81b604482015260640161052f565b851580156110cb5750600081115b156110d557600195505b808360020160008282546110e99190612aab565b92505081905550808460040160008282546111049190612aab565b9091555050835461111f906001600160a01b03168a83612378565b8087868151811061113257611132612bc4565b60200260200101818152505050505050808061114d90612b6f565b915050611005565b508061118b5760405162461bcd60e51b815260206004820152600560248201526414d4910c8d60da1b604482015260640161052f565b336001600160a01b03167f28ee566bdecaf975c0979f4d09fecf91a9009ffe78523aef053a678134137b8b836040516111c49190612a02565b60405180910390a25050505050565b6001600160a01b03811660009081526001602052604081208154606092906001600160401b0381111561120857611208612bda565b604051908082528060200260200182016040528015611231578160200160208202803683370190505b50905060005b6000548110156112b75782600101600080838154811061125957611259612bc4565b600091825260208083206005909202909101546001600160a01b03168352820192909252604001902060010154825183908390811061129a5761129a612bc4565b6020908102919091010152806112af81612b6f565b915050611237565b509392505050565b600554600160b01b900460ff1680156112e25750600554600160a81b900460ff16155b80156112f957506002546001600160401b03164210155b80156113175750600254600160401b90046001600160401b03164211155b61134b5760405162461bcd60e51b8152602060048201526005602482015264535244323160d81b604482015260640161052f565b600560009054906101000a90046001600160a01b03166001600160a01b031663bbb781cc6040518163ffffffff1660e01b8152600401602060405180830381600087803b15801561139b57600080fd5b505af11580156113af573d6000803e3d6000fd5b505050506040513d601f19601f820116820180604052508101906113d3919061286d565b156114085760405162461bcd60e51b8152602060048201526005602482015264535244323560d81b604482015260640161052f565b600081116114405760405162461bcd60e51b8152602060048201526005602482015264535244303960d81b604482015260640161052f565b6007541561148f57600754816006546114599190612aab565b111561148f5760405162461bcd60e51b8152602060048201526005602482015264053524431360dc1b604482015260640161052f565b611497612127565b3360009081526001602052604081208054909183918391906114ba908490612aab565b9250508190555081600660008282546114d39190612aab565b90915550506003546114f0906001600160a01b03163330856123e0565b60405182815233907f9e71bc8eea02a63969f509818f2dafb9254532904319f9dbda79b67bd34a5f3d90602001610b57565b600080546001600160401b0381111561153d5761153d612bda565b604051908082528060200260200182016040528015611566578160200160208202803683370190505b50905060005b60005463ffffffff82161015611673576000808263ffffffff168154811061159657611596612bc4565b60009182526020909120600590910201546001600160a01b0390811691508516811415611612576115d26001600160a01b0386163330876123e0565b8360008363ffffffff16815481106115ec576115ec612bc4565b9060005260206000209060050201600101600082825461160c9190612aab565b90915550505b60008263ffffffff168154811061162b5761162b612bc4565b906000526020600020906005020160010154838363ffffffff168151811061165557611655612bc4565b6020908102919091010152508061166b81612b8a565b91505061156c565b507f435783188b65ac75875f7b455c137ab431de3ce62e0842b34abb1874d690a726816040516116a39190612a02565b60405180910390a1505050565b600554600160b01b900460ff1680156116d35750600554600160a81b900460ff16155b80156116ea57506002546001600160401b03164210155b6117065760405162461bcd60e51b815260040161052f90612a6d565b61170f81610ce3565b33600090815260016020526040902054611728906109a7565b50565b6001600160a01b03811660009081526001602052604081208154606092906001600160401b0381111561176057611760612bda565b604051908082528060200260200182016040528015611789578160200160208202803683370190505b50905060005b6000548110156112b75760008082815481106117ad576117ad612bc4565b60009182526020808320600590920290910180546001600160a01b03168352600187019091526040909120600201548451919250908490849081106117f4576117f4612bc4565b6020908102919091010152508061180a81612b6f565b91505061178f565b60008054606091906001600160401b0381111561183157611831612bda565b60405190808252806020026020018201604052801561185a578160200160208202803683370190505b50905060005b6000548110156118d8576000818154811061187d5761187d612bc4565b600091825260209091206005909102015482516001600160a01b03909116908390839081106118ae576118ae612bc4565b6001600160a01b0390921660209283029190910190910152806118d081612b6f565b915050611860565b50919050565b60008054606091906001600160401b038111156118fd576118fd612bda565b604051908082528060200260200182016040528015611926578160200160208202803683370190505b50600554909150600160b01b900460ff16158061194d57506002546001600160401b031642105b156119975760005b60005481101561199057600082828151811061197357611973612bc4565b60209081029190910101528061198881612b6f565b915050611955565b5092915050565b6001600160a01b03831660009081526001602052604081206002549091906119d0904290600160401b90046001600160401b031661241e565b6002549091506000906119f390600160c01b90046001600160401b031683612b1b565b6001600160401b0316905060005b600054811015611b6a576000808281548110611a1f57611a1f612bc4565b60009182526020808320600590920290910180546001600160a01b031683526001880190915260409091206002820154919250908415801590611a6457506000600654115b15611aea57600654600254600160701b90611a98906001600160401b03600160c01b8204811691600160401b900416612b1b565b6001600160401b031685600401548660010154611ab59190612b04565b611abf9089612ae5565b611ac99190612ac3565b611ad39190612ae5565b611add9190612ac3565b611ae79082612aab565b90505b8154600090600160701b90611aff9084612b04565b8954611b0b9190612ae5565b611b159190612ac3565b905082600201548360010154611b2b9190612b04565b611b359082612aab565b898681518110611b4757611b47612bc4565b602002602001018181525050505050508080611b6290612b6f565b915050611a01565b509295945050505050565b600554600160b01b900460ff168015611b985750600554600160a81b900460ff16155b8015611baf57506002546001600160401b03164210155b611bcb5760405162461bcd60e51b815260040161052f90612a6d565b611bd3612127565b600080546001600160401b03811115611bee57611bee612bda565b604051908082528060200260200182016040528015611c17578160200160208202803683370190505b5090506000805b600054811015611dc3576000808281548110611c3c57611c3c612bc4565b90600052602060002090600502019050600160701b6001600160e01b0316600260109054906101000a90046001600160401b03166001600160401b031682600101548360030154611c8d9190612ae5565b611c979190612ac3565b611ca19190612ac3565b816004016000828254611cb49190612aab565b909155505060006003820181905560048201546001830154611cd69190612b04565b82546040516370a0823160e01b81523060048201526001600160a01b03909116906370a082319060240160206040518083038186803b158015611d1857600080fd5b505afa158015611d2c573d6000803e3d6000fd5b505050506040513d601f19601f82011682018060405250810190611d5091906128a3565b611d5a9190612b04565b905083158015611d6a5750600081115b15611d7457600193505b80858481518110611d8757611d87612bc4565b60209081029190910101526004548254611dae916001600160a01b03918216911683612378565b50508080611dbb90612b6f565b915050611c1e565b5080611df95760405162461bcd60e51b815260206004820152600560248201526429a922191960d91b604482015260640161052f565b7ff904fafa600a7e4e8039f3a5497d1b6016772e3060f87d3e40f911b315f00bd182604051611e289190612a02565b60405180910390a15050565b6004546001600160a01b03163314611e5e5760405162461bcd60e51b815260040161052f90612a8c565b600554600160b01b900460ff168015611e815750600554600160a81b900460ff16155b611eb55760405162461bcd60e51b8152602060048201526005602482015264535244313960d81b604482015260640161052f565b6002546001600160401b03164210611ef75760405162461bcd60e51b81526020600482015260056024820152640a6a48860760db1b604482015260640161052f565b60005b600054811015611fd9576000808281548110611f1857611f18612bc4565b6000918252602090912060048054600590930290910180546040516370a0823160e01b81523093810193909352909350611fc6926001600160a01b03908116929116906370a082319060240160206040518083038186803b158015611f7c57600080fd5b505afa158015611f90573d6000803e3d6000fd5b505050506040513d601f19601f82011682018060405250810190611fb491906128a3565b83546001600160a01b03169190612378565b5080611fd181612b6f565b915050611efa565b506005805460ff60a81b1916600160a81b1790556040517f1afb0ae590df277bcb3a37f88612725bf1f7df4755792b1548a7efe77985ff7790600090a1565b6004546001600160a01b031633146120425760405162461bcd60e51b815260040161052f90612a8c565b6001600160a01b0381166120805760405162461bcd60e51b815260206004820152600560248201526429a922189b60d91b604482015260640161052f565b6004546040516001600160a01b038084169216907f8be0079c531659141344cd1fd0a4f28419497f9722a3daafe3b4186f6b6457e090600090a3600480546001600160a01b0319166001600160a01b0392909216919091179055565b600081815481106120ec57600080fd5b6000918252602090912060059091020180546001820154600283015460038401546004909401546001600160a01b0390931694509092909185565b600254600090612148904290600160401b90046001600160401b031661241e565b60025490915060009061216b90600160c01b90046001600160401b031683612b1b565b3360009081526001602052604081206001600160401b039290921692505b60005481101561234c5760008082815481106121a7576121a7612bc4565b60009182526020808320600590920290910180546001600160a01b031683526001860190915260409091206006549192509061225257600254612203906001600160401b03600160c01b8204811691600160401b900416612b1b565b6001600160401b0316826004015483600101546122209190612b04565b61222a9087612ae5565b6122349190612ac3565b8260030160008282546122479190612aab565b909155506122df9050565b600654600254600160701b90612281906001600160401b03600160c01b8204811691600160401b900416612b1b565b6001600160401b03168460040154856001015461229e9190612b04565b6122a89089612ae5565b6122b29190612ac3565b6122bc9190612ae5565b6122c69190612ac3565b8260020160008282546122d99190612aab565b90915550505b80546002830154600091600160701b916122f99190612b04565b86546123059190612ae5565b61230f9190612ac3565b90508015612331578082600101600082825461232b9190612aab565b90915550505b5060029091015490558061234481612b6f565b915050612189565b5050600280546001600160401b03909316600160c01b026001600160c01b039093169290921790915550565b6040516001600160a01b0383166024820152604481018290526123db90849063a9059cbb60e01b906064015b60408051601f198184030181529190526020810180516001600160e01b03166001600160e01b031990931692909217909152612436565b505050565b6040516001600160a01b03808516602483015283166044820152606481018290526124189085906323b872dd60e01b906084016123a4565b50505050565b600081831061242d578161242f565b825b9392505050565b600061248b826040518060400160405280602081526020017f5361666545524332303a206c6f772d6c6576656c2063616c6c206661696c6564815250856001600160a01b03166125089092919063ffffffff16565b8051909150156123db57808060200190518101906124a9919061286d565b6123db5760405162461bcd60e51b815260206004820152602a60248201527f5361666545524332303a204552433230206f7065726174696f6e20646964206e6044820152691bdd081cdd58d8d9595960b21b606482015260840161052f565b6060610bee848460008585843b6125615760405162461bcd60e51b815260206004820152601d60248201527f416464726573733a2063616c6c20746f206e6f6e2d636f6e7472616374000000604482015260640161052f565b600080866001600160a01b0316858760405161257d91906128f2565b60006040518083038185875af1925050503d80600081146125ba576040519150601f19603f3d011682016040523d82523d6000602084013e6125bf565b606091505b50915091506125cf8282866125da565b979650505050505050565b606083156125e957508161242f565b8251156125f95782518084602001fd5b8160405162461bcd60e51b815260040161052f9190612a3a565b80356001600160a01b038116811461262a57600080fd5b919050565b60008083601f84011261264157600080fd5b5081356001600160401b0381111561265857600080fd5b6020830191508360208260051b850101111561267357600080fd5b9250929050565b80356001600160401b038116811461262a57600080fd5b6000602082840312156126a357600080fd5b61242f82612613565b600080604083850312156126bf57600080fd5b6126c883612613565b946020939093013593505050565b600080600080600080600080600060e08a8c0312156126f457600080fd5b89356001600160401b038082111561270b57600080fd5b6127178d838e0161262f565b909b50995089915061272b60208d01612613565b985060408c013591508082111561274157600080fd5b5061274e8c828d0161262f565b9097509550612761905060608b0161267a565b935061276f60808b0161267a565b925060a08a013561277f81612bf0565b8092505060c08a013590509295985092959850929598565b600080604083850312156127aa57600080fd5b82356001600160401b03808211156127c157600080fd5b818501915085601f8301126127d557600080fd5b81356020828211156127e9576127e9612bda565b8160051b604051601f19603f8301168101818110868211171561280e5761280e612bda565b604052838152828101945085830182870184018b101561282d57600080fd5b600096505b84871015612850578035865260019690960195948301948301612832565b5096506128609050878201612613565b9450505050509250929050565b60006020828403121561287f57600080fd5b815161242f81612bf0565b60006020828403121561289c57600080fd5b5035919050565b6000602082840312156128b557600080fd5b5051919050565b81835260006001600160fb1b038311156128d557600080fd5b8260051b8083602087013760009401602001938452509192915050565b60008251612904818460208701612b43565b9190910192915050565b60e0808252810189905260008a6101008301825b8c811015612950576001600160a01b0361293b84612613565b16825260209283019290910190600101612922565b506001600160a01b038b1660208501528381036040850152612973818a8c6128bc565b9250505061298c60608301876001600160401b03169052565b6001600160401b0394909416608082015291151560a083015260c0909101529695505050505050565b6020808252825182820181905260009190848201906040850190845b818110156129f65783516001600160a01b0316835292840192918401916001016129d1565b50909695505050505050565b6020808252825182820181905260009190848201906040850190845b818110156129f657835183529284019291840191600101612a1e565b6020815260008251806020840152612a59816040850160208701612b43565b601f01601f19169190910160400192915050565b602080825260059082015264053524432360dc1b604082015260600190565b602080825260059082015264535244313760d81b604082015260600190565b60008219821115612abe57612abe612bae565b500190565b600082612ae057634e487b7160e01b600052601260045260246000fd5b500490565b6000816000190483118215151615612aff57612aff612bae565b500290565b600082821015612b1657612b16612bae565b500390565b60006001600160401b0383811690831681811015612b3b57612b3b612bae565b039392505050565b60005b83811015612b5e578181015183820152602001612b46565b838111156124185750506000910152565b6000600019821415612b8357612b83612bae565b5060010190565b600063ffffffff80831681811415612ba457612ba4612bae565b6001019392505050565b634e487b7160e01b600052601160045260246000fd5b634e487b7160e01b600052603260045260246000fd5b634e487b7160e01b600052604160045260246000fd5b801515811461172857600080fdfea2646970667358221220e3b7c30c94edcb5eb95336e094f6f700a29124f55477da4cc8dc518041809c0664736f6c63430008060033",
  "immutableReferences": {},
  "source": "// SPDX-License-Identifier: GPL-3.0\n\npragma solidity ^0.8.4;\n\nimport \"@openzeppelin/contracts/utils/math/Math.sol\";\nimport \"@openzeppelin/contracts/token/ERC20/IERC20.sol\";\nimport \"@openzeppelin/contracts/token/ERC20/utils/SafeERC20.sol\";\nimport \"./interfaces/IERC20StakingRewardsDistributionFactory.sol\";\n\n/**\n * Errors codes:\n *\n * SRD01: invalid starting timestamp\n * SRD02: invalid time duration\n * SRD03: inconsistent reward token/amount\n * SRD04: 0 address as reward token\n * SRD05: no reward\n * SRD06: no funding\n * SRD07: 0 address as stakable token\n * SRD08: distribution already started\n * SRD09: tried to stake nothing\n * SRD10: staking cap hit\n * SRD11: tried to withdraw nothing\n * SRD12: funds locked until the distribution ends\n * SRD13: withdrawn amount greater than current stake\n * SRD14: inconsistent claimed amounts\n * SRD15: insufficient claimable amount\n * SRD16: 0 address owner\n * SRD17: caller not owner\n * SRD18: already initialized\n * SRD19: invalid state for cancel to be called\n * SRD20: not started\n * SRD21: already ended\n * SRD22: no rewards are recoverable\n * SRD23: no rewards are claimable while claiming all\n * SRD24: no rewards are claimable while manually claiming an arbitrary amount of rewards\n * SRD25: staking is currently paused\n */\ncontract ERC20StakingRewardsDistribution {\n    using SafeERC20 for IERC20;\n\n    uint224 constant MULTIPLIER = 2**112;\n\n    struct Reward {\n        address token;\n        uint256 amount;\n        uint256 perStakedToken;\n        uint256 recoverableSeconds;\n        uint256 claimed;\n    }\n\n    struct StakerRewardInfo {\n        uint256 consolidatedPerStakedToken;\n        uint256 earned;\n        uint256 claimed;\n    }\n\n    struct Staker {\n        uint256 stake;\n        mapping(address => StakerRewardInfo) rewardInfo;\n    }\n\n    Reward[] public rewards;\n    mapping(address => Staker) public stakers;\n    uint64 public startingTimestamp;\n    uint64 public endingTimestamp;\n    uint64 public secondsDuration;\n    uint64 public lastConsolidationTimestamp;\n    IERC20 public stakableToken;\n    address public owner;\n    address public factory;\n    bool public locked;\n    bool public canceled;\n    bool public initialized;\n    uint256 public totalStakedTokensAmount;\n    uint256 public stakingCap;\n\n    event OwnershipTransferred(\n        address indexed previousOwner,\n        address indexed newOwner\n    );\n    event Initialized(\n        address[] rewardsTokenAddresses,\n        address stakableTokenAddress,\n        uint256[] rewardsAmounts,\n        uint64 startingTimestamp,\n        uint64 endingTimestamp,\n        bool locked,\n        uint256 stakingCap\n    );\n    event Canceled();\n    event Staked(address indexed staker, uint256 amount);\n    event Withdrawn(address indexed withdrawer, uint256 amount);\n    event Claimed(address indexed claimer, uint256[] amounts);\n    event Recovered(uint256[] amounts);\n    event UpdatedRewards(uint256[] amounts);\n\n    function initialize(\n        address[] calldata _rewardTokenAddresses,\n        address _stakableTokenAddress,\n        uint256[] calldata _rewardAmounts,\n        uint64 _startingTimestamp,\n        uint64 _endingTimestamp,\n        bool _locked,\n        uint256 _stakingCap\n    ) external onlyUninitialized {\n        require(_endingTimestamp > _startingTimestamp, \"SRD02\");\n        require(_rewardTokenAddresses.length == _rewardAmounts.length, \"SRD03\");\n\n        secondsDuration = _endingTimestamp - _startingTimestamp;\n        // Initializing reward tokens and amounts\n        for (uint32 _i = 0; _i < _rewardTokenAddresses.length; _i++) {\n            address _rewardTokenAddress = _rewardTokenAddresses[_i];\n            uint256 _rewardAmount = _rewardAmounts[_i];\n            require(_rewardTokenAddress != address(0), \"SRD04\");\n            IERC20 _rewardToken = IERC20(_rewardTokenAddress);\n            require(\n                _rewardToken.balanceOf(address(this)) == _rewardAmount,\n                \"SRD06\"\n            );\n            rewards.push(\n                Reward({\n                    token: _rewardTokenAddress,\n                    amount: _rewardAmount,\n                    perStakedToken: 0,\n                    recoverableSeconds: 0,\n                    claimed: 0\n                })\n            );\n        }\n\n        require(_stakableTokenAddress != address(0), \"SRD07\");\n        stakableToken = IERC20(_stakableTokenAddress);\n\n        owner = msg.sender;\n        factory = msg.sender;\n        startingTimestamp = _startingTimestamp;\n        endingTimestamp = _endingTimestamp;\n        lastConsolidationTimestamp = _startingTimestamp;\n        locked = _locked;\n        stakingCap = _stakingCap;\n        initialized = true;\n        canceled = false;\n\n        emit Initialized(\n            _rewardTokenAddresses,\n            _stakableTokenAddress,\n            _rewardAmounts,\n            _startingTimestamp,\n            _endingTimestamp,\n            _locked,\n            _stakingCap\n        );\n    }\n\n    function cancel() external onlyOwner {\n        require(initialized && !canceled, \"SRD19\");\n        require(block.timestamp < startingTimestamp, \"SRD08\");\n        for (uint256 _i; _i < rewards.length; _i++) {\n            Reward storage _reward = rewards[_i];\n            IERC20(_reward.token).safeTransfer(\n                owner,\n                IERC20(_reward.token).balanceOf(address(this))\n            );\n        }\n        canceled = true;\n        emit Canceled();\n    }\n\n    function recoverUnassignedRewards() external onlyStarted {\n        consolidateReward();\n        uint256[] memory _recoveredUnassignedRewards =\n            new uint256[](rewards.length);\n        bool _atLeastOneNonZeroRecovery = false;\n        for (uint256 _i; _i < rewards.length; _i++) {\n            Reward storage _reward = rewards[_i];\n            // recoverable rewards are going to be recovered in this tx (if it does not revert),\n            // so we add them to the claimed rewards right now\n            _reward.claimed +=\n                ((_reward.recoverableSeconds * _reward.amount) /\n                    secondsDuration) /\n                MULTIPLIER;\n            delete _reward.recoverableSeconds;\n            uint256 _recoverableRewards =\n                IERC20(_reward.token).balanceOf(address(this)) -\n                    (_reward.amount - _reward.claimed);\n            if (!_atLeastOneNonZeroRecovery && _recoverableRewards > 0)\n                _atLeastOneNonZeroRecovery = true;\n            _recoveredUnassignedRewards[_i] = _recoverableRewards;\n            IERC20(_reward.token).safeTransfer(owner, _recoverableRewards);\n        }\n        require(_atLeastOneNonZeroRecovery, \"SRD22\");\n        emit Recovered(_recoveredUnassignedRewards);\n    }\n\n    function stake(uint256 _amount) external onlyRunning {\n        require(\n            !IERC20StakingRewardsDistributionFactory(factory).stakingPaused(),\n            \"SRD25\"\n        );\n        require(_amount > 0, \"SRD09\");\n        if (stakingCap > 0) {\n            require(totalStakedTokensAmount + _amount <= stakingCap, \"SRD10\");\n        }\n        consolidateReward();\n        Staker storage _staker = stakers[msg.sender];\n        _staker.stake += _amount;\n        totalStakedTokensAmount += _amount;\n        stakableToken.safeTransferFrom(msg.sender, address(this), _amount);\n        emit Staked(msg.sender, _amount);\n    }\n\n    function withdraw(uint256 _amount) public onlyStarted {\n        require(_amount > 0, \"SRD11\");\n        if (locked) {\n            require(block.timestamp > endingTimestamp, \"SRD12\");\n        }\n        consolidateReward();\n        Staker storage _staker = stakers[msg.sender];\n        require(_staker.stake >= _amount, \"SRD13\");\n        _staker.stake -= _amount;\n        totalStakedTokensAmount -= _amount;\n        stakableToken.safeTransfer(msg.sender, _amount);\n        emit Withdrawn(msg.sender, _amount);\n    }\n\n    function claim(uint256[] memory _amounts, address _recipient)\n        external\n        onlyStarted\n    {\n        require(_amounts.length == rewards.length, \"SRD14\");\n        consolidateReward();\n        Staker storage _staker = stakers[msg.sender];\n        uint256[] memory _claimedRewards = new uint256[](rewards.length);\n        bool _atLeastOneNonZeroClaim = false;\n        for (uint256 _i; _i < rewards.length; _i++) {\n            Reward storage _reward = rewards[_i];\n            StakerRewardInfo storage _stakerRewardInfo =\n                _staker.rewardInfo[_reward.token];\n            uint256 _claimableReward =\n                _stakerRewardInfo.earned - _stakerRewardInfo.claimed;\n            uint256 _wantedAmount = _amounts[_i];\n            require(_claimableReward >= _wantedAmount, \"SRD15\");\n            if (!_atLeastOneNonZeroClaim && _wantedAmount > 0)\n                _atLeastOneNonZeroClaim = true;\n            _stakerRewardInfo.claimed += _wantedAmount;\n            _reward.claimed += _wantedAmount;\n            IERC20(_reward.token).safeTransfer(_recipient, _wantedAmount);\n            _claimedRewards[_i] = _wantedAmount;\n        }\n        require(_atLeastOneNonZeroClaim, \"SRD24\");\n        emit Claimed(msg.sender, _claimedRewards);\n    }\n\n    function claimAll(address _recipient) public onlyStarted {\n        consolidateReward();\n        Staker storage _staker = stakers[msg.sender];\n        uint256[] memory _claimedRewards = new uint256[](rewards.length);\n        bool _atLeastOneNonZeroClaim = false;\n        for (uint256 _i; _i < rewards.length; _i++) {\n            Reward storage _reward = rewards[_i];\n            StakerRewardInfo storage _stakerRewardInfo =\n                _staker.rewardInfo[_reward.token];\n            uint256 _claimableReward =\n                _stakerRewardInfo.earned - _stakerRewardInfo.claimed;\n            if (!_atLeastOneNonZeroClaim && _claimableReward > 0)\n                _atLeastOneNonZeroClaim = true;\n            _stakerRewardInfo.claimed += _claimableReward;\n            _reward.claimed += _claimableReward;\n            IERC20(_reward.token).safeTransfer(_recipient, _claimableReward);\n            _claimedRewards[_i] = _claimableReward;\n        }\n        require(_atLeastOneNonZeroClaim, \"SRD23\");\n        emit Claimed(msg.sender, _claimedRewards);\n    }\n\n    function exit(address _recipient) external onlyStarted {\n        claimAll(_recipient);\n        withdraw(stakers[msg.sender].stake);\n    }\n\n    function consolidateReward() private {\n        uint64 _consolidationTimestamp =\n            uint64(Math.min(block.timestamp, endingTimestamp));\n        uint256 _lastPeriodDuration =\n            uint256(_consolidationTimestamp - lastConsolidationTimestamp);\n        Staker storage _staker = stakers[msg.sender];\n        for (uint256 _i; _i < rewards.length; _i++) {\n            Reward storage _reward = rewards[_i];\n            StakerRewardInfo storage _stakerRewardInfo =\n                _staker.rewardInfo[_reward.token];\n            if (totalStakedTokensAmount == 0) {\n                _reward.recoverableSeconds += ((_lastPeriodDuration *\n                    (_reward.amount - _reward.claimed)) /\n                    (endingTimestamp - lastConsolidationTimestamp));\n                // no need to update the reward per staked token since in this period\n                // there have been no staked tokens, so no reward has been given out to stakers\n            } else {\n                _reward.perStakedToken += ((((_lastPeriodDuration *\n                    (_reward.amount - _reward.claimed)) /\n                    (endingTimestamp - lastConsolidationTimestamp)) *\n                    MULTIPLIER) / totalStakedTokensAmount);\n            }\n            uint256 _rewardSinceLastConsolidation =\n                (_staker.stake *\n                    (_reward.perStakedToken -\n                        _stakerRewardInfo.consolidatedPerStakedToken)) /\n                    MULTIPLIER;\n            if (_rewardSinceLastConsolidation > 0) {\n                _stakerRewardInfo.earned += _rewardSinceLastConsolidation;\n            }\n            _stakerRewardInfo.consolidatedPerStakedToken = _reward\n                .perStakedToken;\n        }\n        lastConsolidationTimestamp = _consolidationTimestamp;\n    }\n\n    function addRewards(address _token, uint256 _amount) public {\n        uint256[] memory _updatedAmounts = new uint256[](rewards.length);\n        for (uint32 _i = 0; _i < rewards.length; _i++) {\n            address _rewardTokenAddress = rewards[_i].token;\n            if (_rewardTokenAddress == _token) {\n                IERC20(_token).safeTransferFrom(\n                    msg.sender,\n                    address(this),\n                    _amount\n                );\n                rewards[_i].amount += _amount;\n            }\n            _updatedAmounts[_i] = rewards[_i].amount;\n        }\n        emit UpdatedRewards(_updatedAmounts);\n    }\n\n    function claimableRewards(address _account)\n        public\n        view\n        returns (uint256[] memory)\n    {\n        uint256[] memory _outstandingRewards = new uint256[](rewards.length);\n        if (!initialized || block.timestamp < startingTimestamp) {\n            for (uint256 _i; _i < rewards.length; _i++) {\n                _outstandingRewards[_i] = 0;\n            }\n            return _outstandingRewards;\n        }\n        Staker storage _staker = stakers[_account];\n        uint64 _consolidationTimestamp =\n            uint64(Math.min(block.timestamp, endingTimestamp));\n        uint256 _lastPeriodDuration =\n            uint256(_consolidationTimestamp - lastConsolidationTimestamp);\n        for (uint256 _i; _i < rewards.length; _i++) {\n            Reward storage _reward = rewards[_i];\n            StakerRewardInfo storage _stakerRewardInfo =\n                _staker.rewardInfo[_reward.token];\n            uint256 _localRewardPerStakedToken = _reward.perStakedToken;\n            if (_lastPeriodDuration > 0 && totalStakedTokensAmount > 0) {\n                _localRewardPerStakedToken += ((((_lastPeriodDuration *\n                    (_reward.amount - _reward.claimed)) /\n                    (endingTimestamp - lastConsolidationTimestamp)) *\n                    MULTIPLIER) / totalStakedTokensAmount);\n            }\n            uint256 _rewardSinceLastConsolidation =\n                (_staker.stake *\n                    (_localRewardPerStakedToken -\n                        _stakerRewardInfo.consolidatedPerStakedToken)) /\n                    MULTIPLIER;\n            _outstandingRewards[_i] =\n                _rewardSinceLastConsolidation +\n                (_stakerRewardInfo.earned - _stakerRewardInfo.claimed);\n        }\n        return _outstandingRewards;\n    }\n\n    function getRewardTokens() external view returns (address[] memory) {\n        address[] memory _rewardTokens = new address[](rewards.length);\n        for (uint256 _i = 0; _i < rewards.length; _i++) {\n            _rewardTokens[_i] = rewards[_i].token;\n        }\n        return _rewardTokens;\n    }\n\n    function rewardAmount(address _rewardToken)\n        external\n        view\n        returns (uint256)\n    {\n        for (uint256 _i = 0; _i < rewards.length; _i++) {\n            Reward storage _reward = rewards[_i];\n            if (_rewardToken == _reward.token) return _reward.amount;\n        }\n        return 0;\n    }\n\n    function stakedTokensOf(address _staker) external view returns (uint256) {\n        return stakers[_staker].stake;\n    }\n\n    function earnedRewardsOf(address _staker)\n        external\n        view\n        returns (uint256[] memory)\n    {\n        Staker storage _stakerFromStorage = stakers[_staker];\n        uint256[] memory _earnedRewards = new uint256[](rewards.length);\n        for (uint256 _i; _i < rewards.length; _i++) {\n            _earnedRewards[_i] = _stakerFromStorage.rewardInfo[\n                rewards[_i].token\n            ]\n                .earned;\n        }\n        return _earnedRewards;\n    }\n\n    function recoverableUnassignedReward(address _rewardToken)\n        external\n        view\n        returns (uint256)\n    {\n        for (uint256 _i = 0; _i < rewards.length; _i++) {\n            Reward storage _reward = rewards[_i];\n            if (_rewardToken == _reward.token)\n                return\n                    ((_reward.recoverableSeconds * _reward.amount) /\n                        secondsDuration) / MULTIPLIER;\n        }\n        return 0;\n    }\n\n    function getClaimedRewards(address _claimer)\n        external\n        view\n        returns (uint256[] memory)\n    {\n        Staker storage _staker = stakers[_claimer];\n        uint256[] memory _claimedRewards = new uint256[](rewards.length);\n        for (uint256 _i = 0; _i < rewards.length; _i++) {\n            Reward storage _reward = rewards[_i];\n            _claimedRewards[_i] = _staker.rewardInfo[_reward.token].claimed;\n        }\n        return _claimedRewards;\n    }\n\n    function renounceOwnership() public onlyOwner {\n        owner = address(0);\n        emit OwnershipTransferred(owner, address(0));\n    }\n\n    function transferOwnership(address _newOwner) public onlyOwner {\n        require(_newOwner != address(0), \"SRD16\");\n        emit OwnershipTransferred(owner, _newOwner);\n        owner = _newOwner;\n    }\n\n    modifier onlyOwner() {\n        require(owner == msg.sender, \"SRD17\");\n        _;\n    }\n\n    modifier onlyUninitialized() {\n        require(!initialized, \"SRD18\");\n        _;\n    }\n\n    modifier onlyStarted() {\n        require(\n            initialized && !canceled && block.timestamp >= startingTimestamp,\n            \"SRD20\"\n        );\n        _;\n    }\n\n    modifier onlyRunning() {\n        require(\n            initialized &&\n                !canceled &&\n                block.timestamp >= startingTimestamp &&\n                block.timestamp <= endingTimestamp,\n            \"SRD21\"\n        );\n        _;\n    }\n}\n",
  "sourcePath": "/nvme1n1/home/kermit/dxdao/erc20-staking-rewards-distribution-contracts_/contracts/ERC20StakingRewardsDistribution.sol",
  "compiler": {
    "name": "solc",
    "version": "0.8.6+commit.11564f7e.Emscripten.clang"
  },
  "schemaVersion": "3.4.1",
  "updatedAt": "2021-06-27T01:07:18.765Z",
  "devdoc": {
    "kind": "dev",
    "methods": {},
    "version": 1
  },
  "userdoc": {
    "kind": "user",
    "methods": {},
    "notice": "Errors codes: SRD01: invalid starting timestamp SRD02: invalid time duration SRD03: inconsistent reward token/amount SRD04: 0 address as reward token SRD05: no reward SRD06: no funding SRD07: 0 address as stakable token SRD08: distribution already started SRD09: tried to stake nothing SRD10: staking cap hit SRD11: tried to withdraw nothing SRD12: funds locked until the distribution ends SRD13: withdrawn amount greater than current stake SRD14: inconsistent claimed amounts SRD15: insufficient claimable amount SRD16: 0 address owner SRD17: caller not owner SRD18: already initialized SRD19: invalid state for cancel to be called SRD20: not started SRD21: already ended SRD22: no rewards are recoverable SRD23: no rewards are claimable while claiming all SRD24: no rewards are claimable while manually claiming an arbitrary amount of rewards SRD25: staking is currently paused",
    "version": 1
  }
}