{
  "contractName": "UpgradedERC20StakingRewardsDistribution",
  "abi": [
    {
      "anonymous": false,
      "inputs": [],
      "name": "Canceled",
      "type": "event"
    },
    {
      "anonymous": false,
      "inputs": [
        {
          "indexed": true,
          "internalType": "address",
          "name": "claimer",
          "type": "address"
        },
        {
          "indexed": false,
          "internalType": "uint256[]",
          "name": "amounts",
          "type": "uint256[]"
        }
      ],
      "name": "Claimed",
      "type": "event"
    },
    {
      "anonymous": false,
      "inputs": [
        {
          "indexed": false,
          "internalType": "address[]",
          "name": "rewardsTokenAddresses",
          "type": "address[]"
        },
        {
          "indexed": false,
          "internalType": "address",
          "name": "stakableTokenAddress",
          "type": "address"
        },
        {
          "indexed": false,
          "internalType": "uint256[]",
          "name": "rewardsAmounts",
          "type": "uint256[]"
        },
        {
          "indexed": false,
          "internalType": "uint64",
          "name": "startingTimestamp",
          "type": "uint64"
        },
        {
          "indexed": false,
          "internalType": "uint64",
          "name": "endingTimestamp",
          "type": "uint64"
        },
        {
          "indexed": false,
          "internalType": "bool",
          "name": "locked",
          "type": "bool"
        },
        {
          "indexed": false,
          "internalType": "uint256",
          "name": "stakingCap",
          "type": "uint256"
        }
      ],
      "name": "Initialized",
      "type": "event"
    },
    {
      "anonymous": false,
      "inputs": [
        {
          "indexed": true,
          "internalType": "address",
          "name": "previousOwner",
          "type": "address"
        },
        {
          "indexed": true,
          "internalType": "address",
          "name": "newOwner",
          "type": "address"
        }
      ],
      "name": "OwnershipTransferred",
      "type": "event"
    },
    {
      "anonymous": false,
      "inputs": [
        {
          "indexed": false,
          "internalType": "uint256[]",
          "name": "amounts",
          "type": "uint256[]"
        }
      ],
      "name": "Recovered",
      "type": "event"
    },
    {
      "anonymous": false,
      "inputs": [
        {
          "indexed": true,
          "internalType": "address",
          "name": "staker",
          "type": "address"
        },
        {
          "indexed": false,
          "internalType": "uint256",
          "name": "amount",
          "type": "uint256"
        }
      ],
      "name": "Staked",
      "type": "event"
    },
    {
      "anonymous": false,
      "inputs": [
        {
          "indexed": false,
          "internalType": "uint256[]",
          "name": "amounts",
          "type": "uint256[]"
        }
      ],
      "name": "UpdatedRewards",
      "type": "event"
    },
    {
      "anonymous": false,
      "inputs": [
        {
          "indexed": true,
          "internalType": "address",
          "name": "withdrawer",
          "type": "address"
        },
        {
          "indexed": false,
          "internalType": "uint256",
          "name": "amount",
          "type": "uint256"
        }
      ],
      "name": "Withdrawn",
      "type": "event"
    },
    {
      "inputs": [
        {
          "internalType": "address",
          "name": "_token",
          "type": "address"
        },
        {
          "internalType": "uint256",
          "name": "_amount",
          "type": "uint256"
        }
      ],
      "name": "addRewards",
      "outputs": [],
      "stateMutability": "nonpayable",
      "type": "function"
    },
    {
      "inputs": [],
      "name": "cancel",
      "outputs": [],
      "stateMutability": "nonpayable",
      "type": "function"
    },
    {
      "inputs": [],
      "name": "canceled",
      "outputs": [
        {
          "internalType": "bool",
          "name": "",
          "type": "bool"
        }
      ],
      "stateMutability": "view",
      "type": "function"
    },
    {
      "inputs": [
        {
          "internalType": "uint256[]",
          "name": "_amounts",
          "type": "uint256[]"
        },
        {
          "internalType": "address",
          "name": "_recipient",
          "type": "address"
        }
      ],
      "name": "claim",
      "outputs": [],
      "stateMutability": "nonpayable",
      "type": "function"
    },
    {
      "inputs": [
        {
          "internalType": "address",
          "name": "_recipient",
          "type": "address"
        }
      ],
      "name": "claimAll",
      "outputs": [],
      "stateMutability": "nonpayable",
      "type": "function"
    },
    {
      "inputs": [
        {
          "internalType": "address",
          "name": "_account",
          "type": "address"
        }
      ],
      "name": "claimableRewards",
      "outputs": [
        {
          "internalType": "uint256[]",
          "name": "",
          "type": "uint256[]"
        }
      ],
      "stateMutability": "view",
      "type": "function"
    },
    {
      "inputs": [
        {
          "internalType": "address",
          "name": "_staker",
          "type": "address"
        }
      ],
      "name": "earnedRewardsOf",
      "outputs": [
        {
          "internalType": "uint256[]",
          "name": "",
          "type": "uint256[]"
        }
      ],
      "stateMutability": "view",
      "type": "function"
    },
    {
      "inputs": [],
      "name": "endingTimestamp",
      "outputs": [
        {
          "internalType": "uint64",
          "name": "",
          "type": "uint64"
        }
      ],
      "stateMutability": "view",
      "type": "function"
    },
    {
      "inputs": [
        {
          "internalType": "address",
          "name": "_recipient",
          "type": "address"
        }
      ],
      "name": "exit",
      "outputs": [],
      "stateMutability": "nonpayable",
      "type": "function"
    },
    {
      "inputs": [],
      "name": "factory",
      "outputs": [
        {
          "internalType": "address",
          "name": "",
          "type": "address"
        }
      ],
      "stateMutability": "view",
      "type": "function"
    },
    {
      "inputs": [
        {
          "internalType": "address",
          "name": "_claimer",
          "type": "address"
        }
      ],
      "name": "getClaimedRewards",
      "outputs": [
        {
          "internalType": "uint256[]",
          "name": "",
          "type": "uint256[]"
        }
      ],
      "stateMutability": "view",
      "type": "function"
    },
    {
      "inputs": [],
      "name": "getRewardTokens",
      "outputs": [
        {
          "internalType": "address[]",
          "name": "",
          "type": "address[]"
        }
      ],
      "stateMutability": "view",
      "type": "function"
    },
    {
      "inputs": [
        {
          "internalType": "address[]",
          "name": "_rewardTokenAddresses",
          "type": "address[]"
        },
        {
          "internalType": "address",
          "name": "_stakableTokenAddress",
          "type": "address"
        },
        {
          "internalType": "uint256[]",
          "name": "_rewardAmounts",
          "type": "uint256[]"
        },
        {
          "internalType": "uint64",
          "name": "_startingTimestamp",
          "type": "uint64"
        },
        {
          "internalType": "uint64",
          "name": "_endingTimestamp",
          "type": "uint64"
        },
        {
          "internalType": "bool",
          "name": "_locked",
          "type": "bool"
        },
        {
          "internalType": "uint256",
          "name": "_stakingCap",
          "type": "uint256"
        }
      ],
      "name": "initialize",
      "outputs": [],
      "stateMutability": "nonpayable",
      "type": "function"
    },
    {
      "inputs": [],
      "name": "initialized",
      "outputs": [
        {
          "internalType": "bool",
          "name": "",
          "type": "bool"
        }
      ],
      "stateMutability": "view",
      "type": "function"
    },
    {
      "inputs": [],
      "name": "lastConsolidationTimestamp",
      "outputs": [
        {
          "internalType": "uint64",
          "name": "",
          "type": "uint64"
        }
      ],
      "stateMutability": "view",
      "type": "function"
    },
    {
      "inputs": [],
      "name": "locked",
      "outputs": [
        {
          "internalType": "bool",
          "name": "",
          "type": "bool"
        }
      ],
      "stateMutability": "view",
      "type": "function"
    },
    {
      "inputs": [],
      "name": "owner",
      "outputs": [
        {
          "internalType": "address",
          "name": "",
          "type": "address"
        }
      ],
      "stateMutability": "view",
      "type": "function"
    },
    {
      "inputs": [],
      "name": "recoverUnassignedRewards",
      "outputs": [],
      "stateMutability": "nonpayable",
      "type": "function"
    },
    {
      "inputs": [
        {
          "internalType": "address",
          "name": "_rewardToken",
          "type": "address"
        }
      ],
      "name": "recoverableUnassignedReward",
      "outputs": [
        {
          "internalType": "uint256",
          "name": "",
          "type": "uint256"
        }
      ],
      "stateMutability": "view",
      "type": "function"
    },
    {
      "inputs": [],
      "name": "renounceOwnership",
      "outputs": [],
      "stateMutability": "nonpayable",
      "type": "function"
    },
    {
      "inputs": [
        {
          "internalType": "address",
          "name": "_rewardToken",
          "type": "address"
        }
      ],
      "name": "rewardAmount",
      "outputs": [
        {
          "internalType": "uint256",
          "name": "",
          "type": "uint256"
        }
      ],
      "stateMutability": "view",
      "type": "function"
    },
    {
      "inputs": [
        {
          "internalType": "uint256",
          "name": "",
          "type": "uint256"
        }
      ],
      "name": "rewards",
      "outputs": [
        {
          "internalType": "address",
          "name": "token",
          "type": "address"
        },
        {
          "internalType": "uint256",
          "name": "amount",
          "type": "uint256"
        },
        {
          "internalType": "uint256",
          "name": "perStakedToken",
          "type": "uint256"
        },
        {
          "internalType": "uint256",
          "name": "recoverableSeconds",
          "type": "uint256"
        },
        {
          "internalType": "uint256",
          "name": "claimed",
          "type": "uint256"
        }
      ],
      "stateMutability": "view",
      "type": "function"
    },
    {
      "inputs": [],
      "name": "secondsDuration",
      "outputs": [
        {
          "internalType": "uint64",
          "name": "",
          "type": "uint64"
        }
      ],
      "stateMutability": "view",
      "type": "function"
    },
    {
      "inputs": [],
      "name": "stakableToken",
      "outputs": [
        {
          "internalType": "contract IERC20",
          "name": "",
          "type": "address"
        }
      ],
      "stateMutability": "view",
      "type": "function"
    },
    {
      "inputs": [
        {
          "internalType": "uint256",
          "name": "_amount",
          "type": "uint256"
        }
      ],
      "name": "stake",
      "outputs": [],
      "stateMutability": "nonpayable",
      "type": "function"
    },
    {
      "inputs": [
        {
          "internalType": "address",
          "name": "_staker",
          "type": "address"
        }
      ],
      "name": "stakedTokensOf",
      "outputs": [
        {
          "internalType": "uint256",
          "name": "",
          "type": "uint256"
        }
      ],
      "stateMutability": "view",
      "type": "function"
    },
    {
      "inputs": [
        {
          "internalType": "address",
          "name": "",
          "type": "address"
        }
      ],
      "name": "stakers",
      "outputs": [
        {
          "internalType": "uint256",
          "name": "stake",
          "type": "uint256"
        }
      ],
      "stateMutability": "view",
      "type": "function"
    },
    {
      "inputs": [],
      "name": "stakingCap",
      "outputs": [
        {
          "internalType": "uint256",
          "name": "",
          "type": "uint256"
        }
      ],
      "stateMutability": "view",
      "type": "function"
    },
    {
      "inputs": [],
      "name": "startingTimestamp",
      "outputs": [
        {
          "internalType": "uint64",
          "name": "",
          "type": "uint64"
        }
      ],
      "stateMutability": "view",
      "type": "function"
    },
    {
      "inputs": [],
      "name": "totalStakedTokensAmount",
      "outputs": [
        {
          "internalType": "uint256",
          "name": "",
          "type": "uint256"
        }
      ],
      "stateMutability": "view",
      "type": "function"
    },
    {
      "inputs": [
        {
          "internalType": "address",
          "name": "_newOwner",
          "type": "address"
        }
      ],
      "name": "transferOwnership",
      "outputs": [],
      "stateMutability": "nonpayable",
      "type": "function"
    },
    {
      "inputs": [
        {
          "internalType": "uint256",
          "name": "_amount",
          "type": "uint256"
        }
      ],
      "name": "withdraw",
      "outputs": [],
      "stateMutability": "nonpayable",
      "type": "function"
    },
    {
      "inputs": [],
      "name": "isUpgraded",
      "outputs": [
        {
          "internalType": "bool",
          "name": "",
          "type": "bool"
        }
      ],
      "stateMutability": "pure",
      "type": "function"
    }
  ],
  "bytecode": "0x608060405234801561001057600080fd5b50612c46806100206000396000f3fe608060405234801561001057600080fd5b50600436106101fb5760003560e01c80639168ae721161011a578063c10de300116100ad578063dc01f60d1161007c578063dc01f60d14610488578063e644067d1461049b578063ea8a1af0146104a3578063f2fde38b146104ab578063f301af42146104be57600080fd5b8063c10de30014610432578063c45a01551461044c578063c4f59f9b1461045f578063cf3090121461047457600080fd5b8063ab08d4fc116100e9578063ab08d4fc146103da578063b41fa97914610403578063b42652e91461040c578063b9e35db01461041f57600080fd5b80639168ae72146103745780639322776e14610394578063a694fc3a146103b4578063a9fc507b146103c757600080fd5b80635e5294b71161019257806377329f351161016157806377329f3514610328578063887862721461033b5780638c574b481461034e5780638da5cb5b1461036157600080fd5b80635e5294b7146102c15780635fa35023146102f3578063645a8a561461030d578063715018a61461032057600080fd5b80633b34ee50116101ce5780633b34ee501461027c5780633f9942ff1461029d57806342c80fc9146102b157806344c370d3146102b857600080fd5b8063158ef93e146102005780631c96c3fb1461022957806323a26e36146102545780632e1a7d4d14610269575b600080fd5b60055461021490600160b01b900460ff1681565b60405190151581526020015b60405180910390f35b60035461023c906001600160a01b031681565b6040516001600160a01b039091168152602001610220565b6102676102623660046126e8565b610503565b005b61026761027736600461289c565b6109b9565b61028f61028a3660046126a3565b610b75565b604051908152602001610220565b60055461021490600160a81b900460ff1681565b6001610214565b61028f60075481565b6002546102db90600160401b90046001600160401b031681565b6040516001600160401b039091168152602001610220565b6002546102db90600160801b90046001600160401b031681565b61028f61031b3660046126a3565b610c24565b610267610c8c565b6102676103363660046126a3565b610cf5565b6002546102db906001600160401b031681565b61026761035c3660046127a9565b610f24565b60045461023c906001600160a01b031681565b61028f6103823660046126a3565b60016020526000908152604090205481565b6103a76103a23660046126a3565b6111e5565b6040516102209190612a14565b6102676103c236600461289c565b6112d1565b6102676103d53660046126be565b611534565b61028f6103e83660046126a3565b6001600160a01b031660009081526001602052604090205490565b61028f60065481565b61026761041a3660046126a3565b6116c2565b6103a761042d3660046126a3565b61173d565b6002546102db90600160c01b90046001600160401b031681565b60055461023c906001600160a01b031681565b610467611824565b60405161022091906129c7565b60055461021490600160a01b900460ff1681565b6103a76104963660046126a3565b6118f0565b610267611b87565b610267611e46565b6102676104b93660046126a3565b61202a565b6104d16104cc36600461289c565b6120ee565b604080516001600160a01b0390961686526020860194909452928401919091526060830152608082015260a001610220565b600554600160b01b900460ff161561054a5760405162461bcd60e51b81526020600482015260056024820152640a6a48862760db1b60448201526064015b60405180910390fd5b836001600160401b0316836001600160401b0316116105935760405162461bcd60e51b815260206004820152600560248201526429a922181960d91b6044820152606401610541565b8785146105ca5760405162461bcd60e51b8152602060048201526005602482015264535244303360d81b6044820152606401610541565b6105d48484612b2d565b600260106101000a8154816001600160401b0302191690836001600160401b0316021790555060005b63ffffffff81168911156108785760008a8a8363ffffffff1681811061062557610625612bd6565b905060200201602081019061063a91906126a3565b9050600088888463ffffffff1681811061065657610656612bd6565b60200291909101359150506001600160a01b03821661069f5760405162461bcd60e51b815260206004820152600560248201526414d4910c0d60da1b6044820152606401610541565b6040516370a0823160e01b8152306004820152829082906001600160a01b038316906370a082319060240160206040518083038186803b1580156106e257600080fd5b505afa1580156106f6573d6000803e3d6000fd5b505050506040513d601f19601f8201168201806040525081019061071a91906128b5565b1461074f5760405162461bcd60e51b815260206004820152600560248201526429a922181b60d91b6044820152606401610541565b506040805160a0810182526001600160a01b0393841681526020810192835260009181018281526060820183815260808301848152845460018101865594805292517f290decd9548b62a8d60345a988386fc84ba6bc95484008f6362f93160ef3e563600590950294850180546001600160a01b031916919097161790955592517f290decd9548b62a8d60345a988386fc84ba6bc95484008f6362f93160ef3e56483015591517f290decd9548b62a8d60345a988386fc84ba6bc95484008f6362f93160ef3e56582015591517f290decd9548b62a8d60345a988386fc84ba6bc95484008f6362f93160ef3e566830155517f290decd9548b62a8d60345a988386fc84ba6bc95484008f6362f93160ef3e567909101558061087081612b9c565b9150506105fd565b506001600160a01b0387166108b75760405162461bcd60e51b8152602060048201526005602482015264535244303760d81b6044820152606401610541565b600380546001600160a01b03199081166001600160a01b038a1617909155600480543392168217905560058054600280546fffffffffffffffffffffffffffffffff19166001600160401b03898116918217600160401b918a1691909102176001600160c01b0316600160c01b919091021790556007849055600160b01b6001600160a81b031990911660ff60a01b1990931692909217600160a01b851515021761ffff60a81b19169190911790556040517f2c1fa4f0e3f1c67636ee0b3665bf3a04407a2c1332d4e3e99f941ee2b0b9daf4906109a6908b908b908b908b908b908b908b908b908b90612920565b60405180910390a1505050505050505050565b600554600160b01b900460ff1680156109dc5750600554600160a81b900460ff16155b80156109f357506002546001600160401b03164210155b610a0f5760405162461bcd60e51b815260040161054190612a7f565b60008111610a475760405162461bcd60e51b8152602060048201526005602482015264535244313160d81b6044820152606401610541565b600554600160a01b900460ff1615610aa257600254600160401b90046001600160401b03164211610aa25760405162461bcd60e51b815260206004820152600560248201526429a922189960d91b6044820152606401610541565b610aaa612139565b3360009081526001602052604090208054821115610af25760405162461bcd60e51b8152602060048201526005602482015264535244313360d81b6044820152606401610541565b81816000016000828254610b069190612b16565b925050819055508160066000828254610b1f9190612b16565b9091555050600354610b3b906001600160a01b0316338461238a565b60405182815233907f7084f5476618d8e60b11ef0d7d3f06914655adb8793e28ff7f018d4c76d505d5906020015b60405180910390a25050565b6000805b600054811015610c1b576000808281548110610b9757610b97612bd6565b6000918252602090912060059091020180549091506001600160a01b0385811691161415610c085760025460018201546003830154600160701b92600160801b90046001600160401b031691610bec91612af7565b610bf69190612ad5565b610c009190612ad5565b949350505050565b5080610c1381612b81565b915050610b79565b50600092915050565b6000805b600054811015610c1b576000808281548110610c4657610c46612bd6565b6000918252602090912060059091020180549091506001600160a01b0385811691161415610c7957600101549392505050565b5080610c8481612b81565b915050610c28565b6004546001600160a01b03163314610cb65760405162461bcd60e51b815260040161054190612a9e565b600480546001600160a01b031916905560405160009081907f8be0079c531659141344cd1fd0a4f28419497f9722a3daafe3b4186f6b6457e0908290a3565b600554600160b01b900460ff168015610d185750600554600160a81b900460ff16155b8015610d2f57506002546001600160401b03164210155b610d4b5760405162461bcd60e51b815260040161054190612a7f565b610d53612139565b33600090815260016020526040812081549091906001600160401b03811115610d7e57610d7e612bec565b604051908082528060200260200182016040528015610da7578160200160208202803683370190505b5090506000805b600054811015610ea7576000808281548110610dcc57610dcc612bd6565b60009182526020808320600590920290910180546001600160a01b031683526001808901909252604083206002810154928101549194509291610e0e91612b16565b905084158015610e1e5750600081115b15610e2857600194505b80826002016000828254610e3c9190612abd565b9250508190555080836004016000828254610e579190612abd565b90915550508254610e72906001600160a01b0316898361238a565b80868581518110610e8557610e85612bd6565b6020026020010181815250505050508080610e9f90612b81565b915050610dae565b5080610edd5760405162461bcd60e51b8152602060048201526005602482015264535244323360d81b6044820152606401610541565b336001600160a01b03167f28ee566bdecaf975c0979f4d09fecf91a9009ffe78523aef053a678134137b8b83604051610f169190612a14565b60405180910390a250505050565b600554600160b01b900460ff168015610f475750600554600160a81b900460ff16155b8015610f5e57506002546001600160401b03164210155b610f7a5760405162461bcd60e51b815260040161054190612a7f565b600054825114610fb45760405162461bcd60e51b815260206004820152600560248201526414d4910c4d60da1b6044820152606401610541565b610fbc612139565b33600090815260016020526040812081549091906001600160401b03811115610fe757610fe7612bec565b604051908082528060200260200182016040528015611010578160200160208202803683370190505b5090506000805b60005481101561116757600080828154811061103557611035612bd6565b60009182526020808320600590920290910180546001600160a01b03168352600180890190925260408320600281015492810154919450929161107791612b16565b9050600089858151811061108d5761108d612bd6565b60200260200101519050808210156110cf5760405162461bcd60e51b8152602060048201526005602482015264535244313560d81b6044820152606401610541565b851580156110dd5750600081115b156110e757600195505b808360020160008282546110fb9190612abd565b92505081905550808460040160008282546111169190612abd565b90915550508354611131906001600160a01b03168a8361238a565b8087868151811061114457611144612bd6565b60200260200101818152505050505050808061115f90612b81565b915050611017565b508061119d5760405162461bcd60e51b815260206004820152600560248201526414d4910c8d60da1b6044820152606401610541565b336001600160a01b03167f28ee566bdecaf975c0979f4d09fecf91a9009ffe78523aef053a678134137b8b836040516111d69190612a14565b60405180910390a25050505050565b6001600160a01b03811660009081526001602052604081208154606092906001600160401b0381111561121a5761121a612bec565b604051908082528060200260200182016040528015611243578160200160208202803683370190505b50905060005b6000548110156112c95782600101600080838154811061126b5761126b612bd6565b600091825260208083206005909202909101546001600160a01b0316835282019290925260400190206001015482518390839081106112ac576112ac612bd6565b6020908102919091010152806112c181612b81565b915050611249565b509392505050565b600554600160b01b900460ff1680156112f45750600554600160a81b900460ff16155b801561130b57506002546001600160401b03164210155b80156113295750600254600160401b90046001600160401b03164211155b61135d5760405162461bcd60e51b8152602060048201526005602482015264535244323160d81b6044820152606401610541565b600560009054906101000a90046001600160a01b03166001600160a01b031663bbb781cc6040518163ffffffff1660e01b8152600401602060405180830381600087803b1580156113ad57600080fd5b505af11580156113c1573d6000803e3d6000fd5b505050506040513d601f19601f820116820180604052508101906113e5919061287f565b1561141a5760405162461bcd60e51b8152602060048201526005602482015264535244323560d81b6044820152606401610541565b600081116114525760405162461bcd60e51b8152602060048201526005602482015264535244303960d81b6044820152606401610541565b600754156114a1576007548160065461146b9190612abd565b11156114a15760405162461bcd60e51b8152602060048201526005602482015264053524431360dc1b6044820152606401610541565b6114a9612139565b3360009081526001602052604081208054909183918391906114cc908490612abd565b9250508190555081600660008282546114e59190612abd565b9091555050600354611502906001600160a01b03163330856123f2565b60405182815233907f9e71bc8eea02a63969f509818f2dafb9254532904319f9dbda79b67bd34a5f3d90602001610b69565b600080546001600160401b0381111561154f5761154f612bec565b604051908082528060200260200182016040528015611578578160200160208202803683370190505b50905060005b60005463ffffffff82161015611685576000808263ffffffff16815481106115a8576115a8612bd6565b60009182526020909120600590910201546001600160a01b0390811691508516811415611624576115e46001600160a01b0386163330876123f2565b8360008363ffffffff16815481106115fe576115fe612bd6565b9060005260206000209060050201600101600082825461161e9190612abd565b90915550505b60008263ffffffff168154811061163d5761163d612bd6565b906000526020600020906005020160010154838363ffffffff168151811061166757611667612bd6565b6020908102919091010152508061167d81612b9c565b91505061157e565b507f435783188b65ac75875f7b455c137ab431de3ce62e0842b34abb1874d690a726816040516116b59190612a14565b60405180910390a1505050565b600554600160b01b900460ff1680156116e55750600554600160a81b900460ff16155b80156116fc57506002546001600160401b03164210155b6117185760405162461bcd60e51b815260040161054190612a7f565b61172181610cf5565b3360009081526001602052604090205461173a906109b9565b50565b6001600160a01b03811660009081526001602052604081208154606092906001600160401b0381111561177257611772612bec565b60405190808252806020026020018201604052801561179b578160200160208202803683370190505b50905060005b6000548110156112c95760008082815481106117bf576117bf612bd6565b60009182526020808320600590920290910180546001600160a01b031683526001870190915260409091206002015484519192509084908490811061180657611806612bd6565b6020908102919091010152508061181c81612b81565b9150506117a1565b60008054606091906001600160401b0381111561184357611843612bec565b60405190808252806020026020018201604052801561186c578160200160208202803683370190505b50905060005b6000548110156118ea576000818154811061188f5761188f612bd6565b600091825260209091206005909102015482516001600160a01b03909116908390839081106118c0576118c0612bd6565b6001600160a01b0390921660209283029190910190910152806118e281612b81565b915050611872565b50919050565b60008054606091906001600160401b0381111561190f5761190f612bec565b604051908082528060200260200182016040528015611938578160200160208202803683370190505b50600554909150600160b01b900460ff16158061195f57506002546001600160401b031642105b156119a95760005b6000548110156119a257600082828151811061198557611985612bd6565b60209081029190910101528061199a81612b81565b915050611967565b5092915050565b6001600160a01b03831660009081526001602052604081206002549091906119e2904290600160401b90046001600160401b0316612430565b600254909150600090611a0590600160c01b90046001600160401b031683612b2d565b6001600160401b0316905060005b600054811015611b7c576000808281548110611a3157611a31612bd6565b60009182526020808320600590920290910180546001600160a01b031683526001880190915260409091206002820154919250908415801590611a7657506000600654115b15611afc57600654600254600160701b90611aaa906001600160401b03600160c01b8204811691600160401b900416612b2d565b6001600160401b031685600401548660010154611ac79190612b16565b611ad19089612af7565b611adb9190612ad5565b611ae59190612af7565b611aef9190612ad5565b611af99082612abd565b90505b8154600090600160701b90611b119084612b16565b8954611b1d9190612af7565b611b279190612ad5565b905082600201548360010154611b3d9190612b16565b611b479082612abd565b898681518110611b5957611b59612bd6565b602002602001018181525050505050508080611b7490612b81565b915050611a13565b509295945050505050565b600554600160b01b900460ff168015611baa5750600554600160a81b900460ff16155b8015611bc157506002546001600160401b03164210155b611bdd5760405162461bcd60e51b815260040161054190612a7f565b611be5612139565b600080546001600160401b03811115611c0057611c00612bec565b604051908082528060200260200182016040528015611c29578160200160208202803683370190505b5090506000805b600054811015611dd5576000808281548110611c4e57611c4e612bd6565b90600052602060002090600502019050600160701b6001600160e01b0316600260109054906101000a90046001600160401b03166001600160401b031682600101548360030154611c9f9190612af7565b611ca99190612ad5565b611cb39190612ad5565b816004016000828254611cc69190612abd565b909155505060006003820181905560048201546001830154611ce89190612b16565b82546040516370a0823160e01b81523060048201526001600160a01b03909116906370a082319060240160206040518083038186803b158015611d2a57600080fd5b505afa158015611d3e573d6000803e3d6000fd5b505050506040513d601f19601f82011682018060405250810190611d6291906128b5565b611d6c9190612b16565b905083158015611d7c5750600081115b15611d8657600193505b80858481518110611d9957611d99612bd6565b60209081029190910101526004548254611dc0916001600160a01b0391821691168361238a565b50508080611dcd90612b81565b915050611c30565b5080611e0b5760405162461bcd60e51b815260206004820152600560248201526429a922191960d91b6044820152606401610541565b7ff904fafa600a7e4e8039f3a5497d1b6016772e3060f87d3e40f911b315f00bd182604051611e3a9190612a14565b60405180910390a15050565b6004546001600160a01b03163314611e705760405162461bcd60e51b815260040161054190612a9e565b600554600160b01b900460ff168015611e935750600554600160a81b900460ff16155b611ec75760405162461bcd60e51b8152602060048201526005602482015264535244313960d81b6044820152606401610541565b6002546001600160401b03164210611f095760405162461bcd60e51b81526020600482015260056024820152640a6a48860760db1b6044820152606401610541565b60005b600054811015611feb576000808281548110611f2a57611f2a612bd6565b6000918252602090912060048054600590930290910180546040516370a0823160e01b81523093810193909352909350611fd8926001600160a01b03908116929116906370a082319060240160206040518083038186803b158015611f8e57600080fd5b505afa158015611fa2573d6000803e3d6000fd5b505050506040513d601f19601f82011682018060405250810190611fc691906128b5565b83546001600160a01b0316919061238a565b5080611fe381612b81565b915050611f0c565b506005805460ff60a81b1916600160a81b1790556040517f1afb0ae590df277bcb3a37f88612725bf1f7df4755792b1548a7efe77985ff7790600090a1565b6004546001600160a01b031633146120545760405162461bcd60e51b815260040161054190612a9e565b6001600160a01b0381166120925760405162461bcd60e51b815260206004820152600560248201526429a922189b60d91b6044820152606401610541565b6004546040516001600160a01b038084169216907f8be0079c531659141344cd1fd0a4f28419497f9722a3daafe3b4186f6b6457e090600090a3600480546001600160a01b0319166001600160a01b0392909216919091179055565b600081815481106120fe57600080fd5b6000918252602090912060059091020180546001820154600283015460038401546004909401546001600160a01b0390931694509092909185565b60025460009061215a904290600160401b90046001600160401b0316612430565b60025490915060009061217d90600160c01b90046001600160401b031683612b2d565b3360009081526001602052604081206001600160401b039290921692505b60005481101561235e5760008082815481106121b9576121b9612bd6565b60009182526020808320600590920290910180546001600160a01b031683526001860190915260409091206006549192509061226457600254612215906001600160401b03600160c01b8204811691600160401b900416612b2d565b6001600160401b0316826004015483600101546122329190612b16565b61223c9087612af7565b6122469190612ad5565b8260030160008282546122599190612abd565b909155506122f19050565b600654600254600160701b90612293906001600160401b03600160c01b8204811691600160401b900416612b2d565b6001600160401b0316846004015485600101546122b09190612b16565b6122ba9089612af7565b6122c49190612ad5565b6122ce9190612af7565b6122d89190612ad5565b8260020160008282546122eb9190612abd565b90915550505b80546002830154600091600160701b9161230b9190612b16565b86546123179190612af7565b6123219190612ad5565b90508015612343578082600101600082825461233d9190612abd565b90915550505b5060029091015490558061235681612b81565b91505061219b565b5050600280546001600160401b03909316600160c01b026001600160c01b039093169290921790915550565b6040516001600160a01b0383166024820152604481018290526123ed90849063a9059cbb60e01b906064015b60408051601f198184030181529190526020810180516001600160e01b03166001600160e01b031990931692909217909152612448565b505050565b6040516001600160a01b038085166024830152831660448201526064810182905261242a9085906323b872dd60e01b906084016123b6565b50505050565b600081831061243f5781612441565b825b9392505050565b600061249d826040518060400160405280602081526020017f5361666545524332303a206c6f772d6c6576656c2063616c6c206661696c6564815250856001600160a01b031661251a9092919063ffffffff16565b8051909150156123ed57808060200190518101906124bb919061287f565b6123ed5760405162461bcd60e51b815260206004820152602a60248201527f5361666545524332303a204552433230206f7065726174696f6e20646964206e6044820152691bdd081cdd58d8d9595960b21b6064820152608401610541565b6060610c00848460008585843b6125735760405162461bcd60e51b815260206004820152601d60248201527f416464726573733a2063616c6c20746f206e6f6e2d636f6e74726163740000006044820152606401610541565b600080866001600160a01b0316858760405161258f9190612904565b60006040518083038185875af1925050503d80600081146125cc576040519150601f19603f3d011682016040523d82523d6000602084013e6125d1565b606091505b50915091506125e18282866125ec565b979650505050505050565b606083156125fb575081612441565b82511561260b5782518084602001fd5b8160405162461bcd60e51b81526004016105419190612a4c565b80356001600160a01b038116811461263c57600080fd5b919050565b60008083601f84011261265357600080fd5b5081356001600160401b0381111561266a57600080fd5b6020830191508360208260051b850101111561268557600080fd5b9250929050565b80356001600160401b038116811461263c57600080fd5b6000602082840312156126b557600080fd5b61244182612625565b600080604083850312156126d157600080fd5b6126da83612625565b946020939093013593505050565b600080600080600080600080600060e08a8c03121561270657600080fd5b89356001600160401b038082111561271d57600080fd5b6127298d838e01612641565b909b50995089915061273d60208d01612625565b985060408c013591508082111561275357600080fd5b506127608c828d01612641565b9097509550612773905060608b0161268c565b935061278160808b0161268c565b925060a08a013561279181612c02565b8092505060c08a013590509295985092959850929598565b600080604083850312156127bc57600080fd5b82356001600160401b03808211156127d357600080fd5b818501915085601f8301126127e757600080fd5b81356020828211156127fb576127fb612bec565b8160051b604051601f19603f8301168101818110868211171561282057612820612bec565b604052838152828101945085830182870184018b101561283f57600080fd5b600096505b84871015612862578035865260019690960195948301948301612844565b5096506128729050878201612625565b9450505050509250929050565b60006020828403121561289157600080fd5b815161244181612c02565b6000602082840312156128ae57600080fd5b5035919050565b6000602082840312156128c757600080fd5b5051919050565b81835260006001600160fb1b038311156128e757600080fd5b8260051b8083602087013760009401602001938452509192915050565b60008251612916818460208701612b55565b9190910192915050565b60e0808252810189905260008a6101008301825b8c811015612962576001600160a01b0361294d84612625565b16825260209283019290910190600101612934565b506001600160a01b038b1660208501528381036040850152612985818a8c6128ce565b9250505061299e60608301876001600160401b03169052565b6001600160401b0394909416608082015291151560a083015260c0909101529695505050505050565b6020808252825182820181905260009190848201906040850190845b81811015612a085783516001600160a01b0316835292840192918401916001016129e3565b50909695505050505050565b6020808252825182820181905260009190848201906040850190845b81811015612a0857835183529284019291840191600101612a30565b6020815260008251806020840152612a6b816040850160208701612b55565b601f01601f19169190910160400192915050565b602080825260059082015264053524432360dc1b604082015260600190565b602080825260059082015264535244313760d81b604082015260600190565b60008219821115612ad057612ad0612bc0565b500190565b600082612af257634e487b7160e01b600052601260045260246000fd5b500490565b6000816000190483118215151615612b1157612b11612bc0565b500290565b600082821015612b2857612b28612bc0565b500390565b60006001600160401b0383811690831681811015612b4d57612b4d612bc0565b039392505050565b60005b83811015612b70578181015183820152602001612b58565b8381111561242a5750506000910152565b6000600019821415612b9557612b95612bc0565b5060010190565b600063ffffffff80831681811415612bb657612bb6612bc0565b6001019392505050565b634e487b7160e01b600052601160045260246000fd5b634e487b7160e01b600052603260045260246000fd5b634e487b7160e01b600052604160045260246000fd5b801515811461173a57600080fdfea26469706673582212208df71a5d5c5a27c28e3261f2988649cea07a62317f4b5b9b3e120f41ff997a2264736f6c63430008060033",
  "immutableReferences": {},
  "source": "//SPDX-License-Identifier: GPL-3.0\n\npragma solidity ^0.8.0;\n\nimport \"@openzeppelin/contracts/token/ERC20/presets/ERC20PresetMinterPauser.sol\";\nimport \"../ERC20StakingRewardsDistribution.sol\";\n\ncontract FirstRewardERC20 is ERC20PresetMinterPauser {\n    constructor() ERC20PresetMinterPauser(\"First reward\", \"RWD1\") {}\n}\n\ncontract SecondRewardERC20 is ERC20PresetMinterPauser {\n    constructor() ERC20PresetMinterPauser(\"Second reward\", \"RWD2\") {}\n}\n\ncontract ZeroDecimalsRewardERC20 is ERC20PresetMinterPauser {\n    constructor() ERC20PresetMinterPauser(\"Zero decimals reward\", \"ZDRWD\") {}\n\n    function decimals() public pure override returns (uint8) {\n        return 0;\n    }\n}\n\ncontract FirstStakableERC20 is ERC20PresetMinterPauser {\n    constructor() ERC20PresetMinterPauser(\"First stakable\", \"STK1\") {}\n}\n\ncontract SecondStakableERC20 is ERC20PresetMinterPauser {\n    constructor() ERC20PresetMinterPauser(\"Second stakable\", \"STK2\") {}\n}\n\ncontract UpgradedERC20StakingRewardsDistribution is\n    ERC20StakingRewardsDistribution\n{\n    function isUpgraded() external pure returns (bool) {\n        return true;\n    }\n}\n",
  "sourcePath": "/nvme1n1/home/kermit/dxdao/erc20-staking-rewards-distribution-contracts_/contracts/test/TestDependencies.sol",
  "compiler": {
    "name": "solc",
    "version": "0.8.6+commit.11564f7e.Emscripten.clang"
  },
  "schemaVersion": "3.4.1",
  "updatedAt": "2021-06-27T01:07:18.805Z",
  "devdoc": {
    "kind": "dev",
    "methods": {},
    "version": 1
  },
  "userdoc": {
    "kind": "user",
    "methods": {},
    "version": 1
  }
}